{
  "contractName": "Test",
  "abi": [
    {
      "anonymous": false,
      "inputs": [
        {
          "indexed": true,
          "internalType": "string",
          "name": "username",
          "type": "string"
        },
        {
          "indexed": false,
          "internalType": "string",
          "name": "chain",
          "type": "string"
        },
        {
          "indexed": false,
          "internalType": "string",
          "name": "transactionData",
          "type": "string"
        }
      ],
      "name": "TransactionRecorded",
      "type": "event"
    },
    {
      "anonymous": false,
      "inputs": [
        {
          "indexed": true,
          "internalType": "string",
          "name": "username",
          "type": "string"
        },
        {
          "indexed": false,
          "internalType": "string",
          "name": "chain",
          "type": "string"
        },
        {
          "indexed": false,
          "internalType": "string",
          "name": "walletAddress",
          "type": "string"
        }
      ],
      "name": "WalletUpdated",
      "type": "event"
    },
    {
      "inputs": [
        {
          "internalType": "string",
          "name": "username",
          "type": "string"
        },
        {
          "internalType": "string",
          "name": "chain",
          "type": "string"
        },
        {
          "internalType": "string",
          "name": "walletAddress",
          "type": "string"
        }
      ],
      "name": "setWalletAddress",
      "outputs": [
        {
          "internalType": "bool",
          "name": "",
          "type": "bool"
        }
      ],
      "stateMutability": "nonpayable",
      "type": "function"
    },
    {
      "inputs": [
        {
          "internalType": "string",
          "name": "username",
          "type": "string"
        },
        {
          "internalType": "string",
          "name": "chain",
          "type": "string"
        }
      ],
      "name": "getWalletAddress",
      "outputs": [
        {
          "internalType": "string",
          "name": "",
          "type": "string"
        }
      ],
      "stateMutability": "view",
      "type": "function",
      "constant": true
    },
    {
      "inputs": [
        {
          "internalType": "string",
          "name": "username",
          "type": "string"
        },
        {
          "internalType": "string",
          "name": "chain",
          "type": "string"
        },
        {
          "internalType": "string",
          "name": "transactionData",
          "type": "string"
        }
      ],
      "name": "recordTransaction",
      "outputs": [
        {
          "internalType": "bool",
          "name": "",
          "type": "bool"
        }
      ],
      "stateMutability": "nonpayable",
      "type": "function"
    },
    {
      "inputs": [
        {
          "internalType": "string",
          "name": "username",
          "type": "string"
        },
        {
          "internalType": "string",
          "name": "chain",
          "type": "string"
        }
      ],
      "name": "getTransactions",
      "outputs": [
        {
          "internalType": "string[]",
          "name": "",
          "type": "string[]"
        }
      ],
      "stateMutability": "view",
      "type": "function",
      "constant": true
    }
  ],
  "bytecode": "0x608060405234801561001057600080fd5b50610817806100206000396000f3fe608060405234801561001057600080fd5b506004361061004c5760003560e01c8063068972e6146100515780639e7f381214610079578063b0247af21461008c578063bca4b740146100ac575b600080fd5b61006461005f366004610588565b6100cc565b60405190151581526020015b60405180910390f35b610064610087366004610588565b610187565b61009f61009a36600461051f565b61023c565b604051610070919061075c565b6100bf6100ba36600461051f565b61031a565b60405161007091906106c9565b600080878787876040516020016100e69493929190610684565b6040516020818303038152906040529050838360008360405161010991906106ad565b90815260405190819003602001902061012392909161043f565b508787604051610134929190610674565b60405180910390207f9e71506f981cab49bf29401ce9258727e684962417d08e135a04bcb06a04518c87878787604051610171949392919061072a565b60405180910390a2506001979650505050505050565b600080878787876040516020016101a19493929190610684565b60405160208183030381529060405290506001816040516101c291906106ad565b90815260405160209181900382019020805460018101825560009182529190206101ee9101858561043f565b5087876040516101ff929190610674565b60405180910390207fdf2a6b53fa1588bc31f5e46f8c82ec4fd02e0a9ea7219b825b13cef0a2a73e3087878787604051610171949392919061072a565b60606000858585856040516020016102579493929190610684565b604051602081830303815290604052905060008160405161027891906106ad565b90815260200160405180910390208054610291906107a6565b80601f01602080910402602001604051908101604052809291908181526020018280546102bd906107a6565b801561030a5780601f106102df5761010080835404028352916020019161030a565b820191906000526020600020905b8154815290600101906020018083116102ed57829003601f168201915b5050505050915050949350505050565b60606000858585856040516020016103359493929190610684565b604051602081830303815290604052905060018160405161035691906106ad565b9081526020016040518091039020805480602002602001604051908101604052809291908181526020016000905b828210156104305783829060005260206000200180546103a3906107a6565b80601f01602080910402602001604051908101604052809291908181526020018280546103cf906107a6565b801561041c5780601f106103f15761010080835404028352916020019161041c565b820191906000526020600020905b8154815290600101906020018083116103ff57829003601f168201915b505050505081526020019060010190610384565b50505050915050949350505050565b82805461044b906107a6565b90600052602060002090601f01602090048101928261046d57600085556104b3565b82601f106104865782800160ff198235161785556104b3565b828001600101855582156104b3579182015b828111156104b3578235825591602001919060010190610498565b506104bf9291506104c3565b5090565b5b808211156104bf57600081556001016104c4565b60008083601f8401126104e9578182fd5b50813567ffffffffffffffff811115610500578182fd5b60208301915083602082850101111561051857600080fd5b9250929050565b60008060008060408587031215610534578384fd5b843567ffffffffffffffff8082111561054b578586fd5b610557888389016104d8565b9096509450602087013591508082111561056f578384fd5b5061057c878288016104d8565b95989497509550505050565b600080600080600080606087890312156105a0578182fd5b863567ffffffffffffffff808211156105b7578384fd5b6105c38a838b016104d8565b909850965060208901359150808211156105db578384fd5b6105e78a838b016104d8565b909650945060408901359150808211156105ff578384fd5b5061060c89828a016104d8565b979a9699509497509295939492505050565b60008284528282602086013780602084860101526020601f19601f85011685010190509392505050565b60008151808452610660816020860160208601610776565b601f01601f19169290920160200192915050565b6000828483379101908152919050565b600084868337601d60f91b82860190815283856001830137909201600101918252509392505050565b600082516106bf818460208701610776565b9190910192915050565b6000602080830181845280855180835260408601915060408160051b8701019250838701855b8281101561071d57603f1988860301845261070b858351610648565b945092850192908501906001016106ef565b5092979650505050505050565b60006040825261073e60408301868861061e565b828103602084015261075181858761061e565b979650505050505050565b60006020825261076f6020830184610648565b9392505050565b60005b83811015610791578181015183820152602001610779565b838111156107a0576000848401525b50505050565b600181811c908216806107ba57607f821691505b602082108114156107db57634e487b7160e01b600052602260045260246000fd5b5091905056fea26469706673582212201cfdbd2cd08c148e94fba2aef7365ccd1da25f8b5dbbb072b776be3ed6504efa64736f6c63430008030033",
  "immutableReferences": {},
  "source": "pragma solidity ^0.8.0;\n\ncontract Test {\n    // \n    mapping(string => string) private wallets;\n    // username:chain\n    mapping(string => string[]) private transactions;\n\n    // \n    event WalletUpdated(string indexed username, string chain, string walletAddress);\n    event TransactionRecorded(string indexed username, string chain, string transactionData);\n\n    // \n    function setWalletAddress(string calldata username, string calldata chain, string calldata walletAddress) public returns (bool) {\n        string memory key = string(abi.encodePacked(username, \":\", chain));\n        wallets[key] = walletAddress;\n        emit WalletUpdated(username, chain, walletAddress);\n        return true; \n    }\n\n    // \n    function getWalletAddress(string calldata username, string calldata chain) public view returns (string memory) {\n        string memory key = string(abi.encodePacked(username, \":\", chain));\n        return wallets[key];\n    }\n\n    // \n    function recordTransaction(string calldata username, string calldata chain, string calldata transactionData) public returns (bool) {\n        string memory key = string(abi.encodePacked(username, \":\", chain));\n        transactions[key].push(transactionData);\n        emit TransactionRecorded(username, chain, transactionData);\n        return true; \n    }\n\n    // \n    function getTransactions(string calldata username, string calldata chain) public view returns (string[] memory) {\n        string memory key = string(abi.encodePacked(username, \":\", chain));\n        return transactions[key];\n    }\n}\n",
  "sourcePath": "/home/jeff/relay_chain/truffleProject/contracts/Test.sol",
  "compiler": {
    "name": "solc",
    "version": "0.8.3+commit.8d00100c.Emscripten.clang"
  },
  "schemaVersion": "3.4.16",
  "updatedAt": "2024-04-17T06:27:33.531Z",
  "networkType": "ethereum",
  "devdoc": {
    "kind": "dev",
    "methods": {},
    "version": 1
  },
  "userdoc": {
    "kind": "user",
    "methods": {},
    "version": 1
  }
}