{
  "contractName": "Test",
  "abi": [
    {
      "anonymous": false,
      "inputs": [
        {
          "indexed": false,
          "internalType": "address",
          "name": "sender",
          "type": "address"
        },
        {
          "indexed": false,
          "internalType": "string",
          "name": "data",
          "type": "string"
        }
      ],
      "name": "DataStored",
      "type": "event"
    },
    {
      "inputs": [
        {
          "internalType": "string",
          "name": "_data",
          "type": "string"
        }
      ],
      "name": "storeData",
      "outputs": [],
      "stateMutability": "nonpayable",
      "type": "function"
    }
  ],
  "bytecode": "0x608060405234801561001057600080fd5b506101da806100206000396000f3fe608060405234801561001057600080fd5b506004361061002b5760003560e01c8063fb218f5f14610030575b600080fd5b61004361003e366004610081565b610045565b005b7f4b33dafb50dac5530c30aca4e4069fd67a18220888b874b8519558d1769d49a1338260405161007692919061012b565b60405180910390a150565b600060208284031215610092578081fd5b813567ffffffffffffffff808211156100a9578283fd5b818401915084601f8301126100bc578283fd5b8135818111156100ce576100ce61018e565b604051601f8201601f19908116603f011681019083821181831017156100f6576100f661018e565b8160405282815287602084870101111561010e578586fd5b826020860160208301379182016020019490945295945050505050565b600060018060a01b038416825260206040818401528351806040850152825b818110156101665785810183015185820160600152820161014a565b818111156101775783606083870101525b50601f01601f191692909201606001949350505050565b634e487b7160e01b600052604160045260246000fdfea26469706673582212202535712befb8d7ea7da4792827575a7130e845be290335a4a97b314fd803b35664736f6c63430008030033",
  "immutableReferences": {},
  "source": "pragma solidity ^0.8.0;\n\ncontract Test {\n    event DataStored(address sender, string data);\n\n    // \n    function storeData(string memory _data) public {\n        // \n        emit DataStored(msg.sender, _data);\n    }\n}\n",
  "sourcePath": "/home/jeff/relay_chain/truffleProject/contracts/Test.sol",
  "compiler": {
    "name": "solc",
    "version": "0.8.3+commit.8d00100c.Emscripten.clang"
  },
  "schemaVersion": "3.4.16",
  "updatedAt": "2024-03-20T10:43:49.778Z",
  "networkType": "ethereum",
  "devdoc": {
    "kind": "dev",
    "methods": {},
    "version": 1
  },
  "userdoc": {
    "kind": "user",
    "methods": {},
    "version": 1
  }
}